{
    "contractName": "Voting",
    "abi": [
        {
            "inputs": [
                {
                    "internalType": "bytes32[]",
                    "name": "candidateNames",
                    "type": "bytes32[]"
                }
            ],
            "stateMutability": "nonpayable",
            "type": "constructor"
        },
        {
            "inputs": [
                {
                    "internalType": "uint256",
                    "name": "",
                    "type": "uint256"
                }
            ],
            "name": "candidateList",
            "outputs": [
                {
                    "internalType": "bytes32",
                    "name": "",
                    "type": "bytes32"
                }
            ],
            "stateMutability": "view",
            "type": "function"
        },
        {
            "inputs": [
                {
                    "internalType": "bytes32",
                    "name": "candidate",
                    "type": "bytes32"
                }
            ],
            "name": "totalVotesFor",
            "outputs": [
                {
                    "internalType": "uint256",
                    "name": "",
                    "type": "uint256"
                }
            ],
            "stateMutability": "view",
            "type": "function"
        },
        {
            "inputs": [
                {
                    "internalType": "bytes32",
                    "name": "candidate",
                    "type": "bytes32"
                }
            ],
            "name": "validCandidate",
            "outputs": [
                {
                    "internalType": "bool",
                    "name": "",
                    "type": "bool"
                }
            ],
            "stateMutability": "view",
            "type": "function"
        },
        {
            "inputs": [
                {
                    "internalType": "bytes32",
                    "name": "candidate",
                    "type": "bytes32"
                }
            ],
            "name": "voteForCandidate",
            "outputs": [],
            "stateMutability": "nonpayable",
            "type": "function"
        },
        {
            "inputs": [
                {
                    "internalType": "bytes32",
                    "name": "",
                    "type": "bytes32"
                }
            ],
            "name": "votesReceived",
            "outputs": [
                {
                    "internalType": "uint256",
                    "name": "",
                    "type": "uint256"
                }
            ],
            "stateMutability": "view",
            "type": "function"
        }
    ],
    "bytecode": "608060405234801561001057600080fd5b506040516103683803806103688339818101604052602081101561003357600080fd5b810190808051604051939291908464010000000082111561005357600080fd5b90830190602082018581111561006857600080fd5b825186602082028301116401000000008211171561008557600080fd5b82525081516020918201928201910280838360005b838110156100b257818101518382015260200161009a565b5050505091909101604052505082516100d492506001915060208401906100db565b5050610143565b828054828255906000526020600020908101928215610116579160200282015b828111156101165782518255916020019190600101906100fb565b50610122929150610126565b5090565b61014091905b80821115610122576000815560010161012c565b90565b610216806101526000396000f3fe608060405234801561001057600080fd5b50600436106100575760003560e01c80632f265cf71461005c578063392e66781461008b5780637021939f146100bc578063b13c744b146100d9578063cc9ab267146100f6575b600080fd5b6100796004803603602081101561007257600080fd5b5035610115565b60408051918252519081900360200190f35b6100a8600480360360208110156100a157600080fd5b503561013f565b604080519115158252519081900360200190f35b610079600480360360208110156100d257600080fd5b5035610187565b610079600480360360208110156100ef57600080fd5b5035610199565b6101136004803603602081101561010c57600080fd5b50356101b7565b005b60006101208261013f565b61012957600080fd5b506000818152602081905260409020545b919050565b6000805b60015481101561017e57826001828154811061015b57fe5b9060005260206000200154141561017657600191505061013a565b600101610143565b50600092915050565b60006020819052908152604090205481565b600181815481106101a657fe5b600091825260209091200154905081565b6101c08161013f565b6101c957600080fd5b60009081526020819052604090208054600101905556fea264697066735822122011498c64214fa814eb9e2aa3712f242895f9294a75518809a50bca5b4878834164736f6c63430006040033",
    "sourcePath": "/home/francoscarpello/Documentos/personal/cripto/votacionFull/Voting.sol",
    "compiler": {
        "name": "solc",
        "version": "0.6.4+commit.1dca32f3"
    },
    "functionHashes": {
        "candidateList(uint256)": "b13c744b",
        "totalVotesFor(bytes32)": "2f265cf7",
        "validCandidate(bytes32)": "392e6678",
        "voteForCandidate(bytes32)": "cc9ab267",
        "votesReceived(bytes32)": "7021939f"
    },
    "gasEstimates": {
        "creation": {
            "codeDepositCost": "106800",
            "executionCost": "infinite",
            "totalCost": "infinite"
        },
        "external": {
            "candidateList(uint256)": "1975",
            "totalVotesFor(bytes32)": "infinite",
            "validCandidate(bytes32)": "infinite",
            "voteForCandidate(bytes32)": "infinite",
            "votesReceived(bytes32)": "1131"
        }
    }
}